{
  "contractName": "Election",
  "abi": [
    {
      "inputs": [],
      "stateMutability": "nonpayable",
      "type": "constructor"
    },
    {
      "anonymous": false,
      "inputs": [
        {
          "indexed": true,
          "internalType": "uint256",
          "name": "_candidateId",
          "type": "uint256"
        },
        {
          "indexed": true,
          "internalType": "address",
          "name": "_voterId",
          "type": "address"
        }
      ],
      "name": "votedEvent",
      "type": "event"
    },
    {
      "inputs": [
        {
          "internalType": "uint256",
          "name": "",
          "type": "uint256"
        }
      ],
      "name": "candidates",
      "outputs": [
        {
          "internalType": "uint256",
          "name": "id",
          "type": "uint256"
        },
        {
          "internalType": "string",
          "name": "name",
          "type": "string"
        },
        {
          "internalType": "string",
          "name": "division",
          "type": "string"
        },
        {
          "internalType": "string",
          "name": "photoPath",
          "type": "string"
        },
        {
          "internalType": "uint256",
          "name": "voteCount",
          "type": "uint256"
        }
      ],
      "stateMutability": "view",
      "type": "function",
      "constant": true
    },
    {
      "inputs": [],
      "name": "candidatesCount",
      "outputs": [
        {
          "internalType": "uint256",
          "name": "",
          "type": "uint256"
        }
      ],
      "stateMutability": "view",
      "type": "function",
      "constant": true
    },
    {
      "inputs": [
        {
          "internalType": "address",
          "name": "",
          "type": "address"
        }
      ],
      "name": "voters",
      "outputs": [
        {
          "internalType": "bool",
          "name": "",
          "type": "bool"
        }
      ],
      "stateMutability": "view",
      "type": "function",
      "constant": true
    },
    {
      "inputs": [],
      "name": "votersCount",
      "outputs": [
        {
          "internalType": "uint256",
          "name": "",
          "type": "uint256"
        }
      ],
      "stateMutability": "view",
      "type": "function",
      "constant": true
    },
    {
      "inputs": [
        {
          "internalType": "uint256",
          "name": "_candidateId",
          "type": "uint256"
        }
      ],
      "name": "vote",
      "outputs": [],
      "stateMutability": "nonpayable",
      "type": "function"
    },
    {
      "inputs": [
        {
          "internalType": "string",
          "name": "division",
          "type": "string"
        }
      ],
      "name": "getCandidates",
      "outputs": [
        {
          "internalType": "string[]",
          "name": "",
          "type": "string[]"
        },
        {
          "internalType": "uint256[]",
          "name": "",
          "type": "uint256[]"
        }
      ],
      "stateMutability": "view",
      "type": "function",
      "constant": true
    }
  ],
  "bytecode": "0x60806040523480156200001157600080fd5b506200009e6040518060400160405280600381526020017f50415000000000000000000000000000000000000000000000000000000000008152506040518060400160405280600681526020017f59697368756e000000000000000000000000000000000000000000000000000081525060405180602001604052806000815250620001bc60201b60201c565b6200012a6040518060400160405280600381526020017f53445000000000000000000000000000000000000000000000000000000000008152506040518060400160405280600681526020017f59697368756e000000000000000000000000000000000000000000000000000081525060405180602001604052806000815250620001bc60201b60201c565b620001b66040518060400160405280600381526020017f53475000000000000000000000000000000000000000000000000000000000008152506040518060400160405280600681526020017f59697368756e000000000000000000000000000000000000000000000000000081525060405180602001604052806000815250620001bc60201b60201c565b62000428565b60036000815480929190620001d19062000377565b91905055506040518060a00160405280600354815260200184815260200183815260200182815260200160008152506001600060035481526020019081526020016000206000820151816000015560208201518160010190805190602001906200023d9291906200028e565b5060408201518160020190805190602001906200025c9291906200028e565b5060608201518160030190805190602001906200027b9291906200028e565b5060808201518160040155905050505050565b8280546200029c90620003f3565b90600052602060002090601f016020900481019282620002c057600085556200030c565b82601f10620002db57805160ff19168380011785556200030c565b828001600101855582156200030c579182015b828111156200030b578251825591602001919060010190620002ee565b5b5090506200031b91906200031f565b5090565b5b808211156200033a57600081600090555060010162000320565b5090565b7f4e487b7100000000000000000000000000000000000000000000000000000000600052601160045260246000fd5b6000819050919050565b600062000384826200036d565b91507fffffffffffffffffffffffffffffffffffffffffffffffffffffffffffffffff8203620003b957620003b86200033e565b5b600182019050919050565b7f4e487b7100000000000000000000000000000000000000000000000000000000600052602260045260246000fd5b600060028204905060018216806200040c57607f821691505b602082108103620004225762000421620003c4565b5b50919050565b610ea980620004386000396000f3fe608060405234801561001057600080fd5b50600436106100625760003560e01c80630121b93f146100675780632d35a8a2146100835780633477ee2e146100a157806345534763146100d557806398c0793814610106578063a3ec138d14610124575b600080fd5b610081600480360381019061007c91906106d7565b610154565b005b61008b610263565b6040516100989190610713565b60405180910390f35b6100bb60048036038101906100b691906106d7565b610269565b6040516100cc9594939291906107c7565b60405180910390f35b6100ef60048036038101906100ea9190610964565b610437565b6040516100fd929190610b77565b60405180910390f35b61010e610667565b60405161011b9190610713565b60405180910390f35b61013e60048036038101906101399190610c0c565b61066d565b60405161014b9190610c54565b60405180910390f35b6000803373ffffffffffffffffffffffffffffffffffffffff1673ffffffffffffffffffffffffffffffffffffffff16815260200190815260200160002060009054906101000a900460ff16156101aa57600080fd5b6000811180156101bc57506003548111155b6101c557600080fd5b60016000803373ffffffffffffffffffffffffffffffffffffffff1673ffffffffffffffffffffffffffffffffffffffff16815260200190815260200160002060006101000a81548160ff0219169083151502179055503373ffffffffffffffffffffffffffffffffffffffff16817f1c2d2d7b3dff10dd3ce206dd5868661f3fdf0f8318ca14dd70ef15d58ce1814160405160405180910390a350565b60035481565b600160205280600052604060002060009150905080600001549080600101805461029290610c9e565b80601f01602080910402602001604051908101604052809291908181526020018280546102be90610c9e565b801561030b5780601f106102e05761010080835404028352916020019161030b565b820191906000526020600020905b8154815290600101906020018083116102ee57829003601f168201915b50505050509080600201805461032090610c9e565b80601f016020809104026020016040519081016040528092919081815260200182805461034c90610c9e565b80156103995780601f1061036e57610100808354040283529160200191610399565b820191906000526020600020905b81548152906001019060200180831161037c57829003601f168201915b5050505050908060030180546103ae90610c9e565b80601f01602080910402602001604051908101604052809291908181526020018280546103da90610c9e565b80156104275780601f106103fc57610100808354040283529160200191610427565b820191906000526020600020905b81548152906001019060200180831161040a57829003601f168201915b5050505050908060040154905085565b606080600060035467ffffffffffffffff81111561045857610457610839565b5b60405190808252806020026020018201604052801561048b57816020015b60608152602001906001900390816104765790505b509050600060035467ffffffffffffffff8111156104ac576104ab610839565b5b6040519080825280602002602001820160405280156104da5781602001602082028036833780820191505090505b50905060005b60035481101561065957856040516020016104fb9190610d0b565b60405160208183030381529060405280519060200120600160008381526020019081526020016000206002016040516020016105379190610db6565b60405160208183030381529060405280519060200120036106465760016000828152602001908152602001600020600101805461057390610c9e565b80601f016020809104026020016040519081016040528092919081815260200182805461059f90610c9e565b80156105ec5780601f106105c1576101008083540402835291602001916105ec565b820191906000526020600020905b8154815290600101906020018083116105cf57829003601f168201915b505050505083828151811061060457610603610dcd565b5b6020026020010181905250600160008281526020019081526020016000206004015482828151811061063957610638610dcd565b5b6020026020010181815250505b808061065190610e2b565b9150506104e0565b508181935093505050915091565b60025481565b60006020528060005260406000206000915054906101000a900460ff1681565b6000604051905090565b600080fd5b600080fd5b6000819050919050565b6106b4816106a1565b81146106bf57600080fd5b50565b6000813590506106d1816106ab565b92915050565b6000602082840312156106ed576106ec610697565b5b60006106fb848285016106c2565b91505092915050565b61070d816106a1565b82525050565b60006020820190506107286000830184610704565b92915050565b600081519050919050565b600082825260208201905092915050565b60005b8381101561076857808201518184015260208101905061074d565b83811115610777576000848401525b50505050565b6000601f19601f8301169050919050565b60006107998261072e565b6107a38185610739565b93506107b381856020860161074a565b6107bc8161077d565b840191505092915050565b600060a0820190506107dc6000830188610704565b81810360208301526107ee818761078e565b90508181036040830152610802818661078e565b90508181036060830152610816818561078e565b90506108256080830184610704565b9695505050505050565b600080fd5b600080fd5b7f4e487b7100000000000000000000000000000000000000000000000000000000600052604160045260246000fd5b6108718261077d565b810181811067ffffffffffffffff821117156108905761088f610839565b5b80604052505050565b60006108a361068d565b90506108af8282610868565b919050565b600067ffffffffffffffff8211156108cf576108ce610839565b5b6108d88261077d565b9050602081019050919050565b82818337600083830152505050565b6000610907610902846108b4565b610899565b90508281526020810184848401111561092357610922610834565b5b61092e8482856108e5565b509392505050565b600082601f83011261094b5761094a61082f565b5b813561095b8482602086016108f4565b91505092915050565b60006020828403121561097a57610979610697565b5b600082013567ffffffffffffffff8111156109985761099761069c565b5b6109a484828501610936565b91505092915050565b600081519050919050565b600082825260208201905092915050565b6000819050602082019050919050565b600082825260208201905092915050565b60006109f58261072e565b6109ff81856109d9565b9350610a0f81856020860161074a565b610a188161077d565b840191505092915050565b6000610a2f83836109ea565b905092915050565b6000602082019050919050565b6000610a4f826109ad565b610a5981856109b8565b935083602082028501610a6b856109c9565b8060005b85811015610aa75784840389528151610a888582610a23565b9450610a9383610a37565b925060208a01995050600181019050610a6f565b50829750879550505050505092915050565b600081519050919050565b600082825260208201905092915050565b6000819050602082019050919050565b610aee816106a1565b82525050565b6000610b008383610ae5565b60208301905092915050565b6000602082019050919050565b6000610b2482610ab9565b610b2e8185610ac4565b9350610b3983610ad5565b8060005b83811015610b6a578151610b518882610af4565b9750610b5c83610b0c565b925050600181019050610b3d565b5085935050505092915050565b60006040820190508181036000830152610b918185610a44565b90508181036020830152610ba58184610b19565b90509392505050565b600073ffffffffffffffffffffffffffffffffffffffff82169050919050565b6000610bd982610bae565b9050919050565b610be981610bce565b8114610bf457600080fd5b50565b600081359050610c0681610be0565b92915050565b600060208284031215610c2257610c21610697565b5b6000610c3084828501610bf7565b91505092915050565b60008115159050919050565b610c4e81610c39565b82525050565b6000602082019050610c696000830184610c45565b92915050565b7f4e487b7100000000000000000000000000000000000000000000000000000000600052602260045260246000fd5b60006002820490506001821680610cb657607f821691505b602082108103610cc957610cc8610c6f565b5b50919050565b600081905092915050565b6000610ce58261072e565b610cef8185610ccf565b9350610cff81856020860161074a565b80840191505092915050565b6000610d178284610cda565b915081905092915050565b60008190508160005260206000209050919050565b60008154610d4481610c9e565b610d4e8186610ccf565b94506001821660008114610d695760018114610d7a57610dad565b60ff19831686528186019350610dad565b610d8385610d22565b60005b83811015610da557815481890152600182019150602081019050610d86565b838801955050505b50505092915050565b6000610dc28284610d37565b915081905092915050565b7f4e487b7100000000000000000000000000000000000000000000000000000000600052603260045260246000fd5b7f4e487b7100000000000000000000000000000000000000000000000000000000600052601160045260246000fd5b6000610e36826106a1565b91507fffffffffffffffffffffffffffffffffffffffffffffffffffffffffffffffff8203610e6857610e67610dfc565b5b60018201905091905056fea26469706673582212203d5a8259a5932e0d89ab5319d2e23db3d914c5c1dba568347c4e83a5f477a96e64736f6c634300080d0033",
  "immutableReferences": {},
  "source": "// SPDX-License-Identifier: UNLICENSED\r\npragma solidity >=0.4.21 <0.9.0;\r\n\r\ncontract Election {\r\n\r\n    struct Voter {\r\n        uint voterAddr;\r\n        bool isVoted;\r\n    }\r\n\r\n    struct Candidate {\r\n        uint id;\r\n        string name;\r\n        string division;\r\n        string photoPath;\r\n        uint voteCount;\r\n    }\r\n\r\n    mapping(address => bool) public voters;\r\n\r\n    // mapping(uint => Voter) public voters;\r\n\r\n    mapping(uint => Candidate) public candidates;\r\n\r\n    uint public votersCount;\r\n    uint public candidatesCount;\r\n\r\n    event votedEvent (\r\n        uint indexed _candidateId, address indexed _voterId\r\n    );\r\n\r\n    constructor() {\r\n        addCandidate(\"PAP\", \"Yishun\", \"\");\r\n        addCandidate(\"SDP\", \"Yishun\", \"\");\r\n        addCandidate(\"SGP\", \"Yishun\", \"\");\r\n    }\r\n\r\n    function addCandidate(string memory name, string memory division, string memory photoPath) private {\r\n        candidatesCount++;\r\n        candidates[candidatesCount] = Candidate(candidatesCount, name, division,photoPath, 0);\r\n    }\r\n\r\n    // function addCandidates(string[] memory name, string memory division) private {\r\n    //     candidatesCount++;\r\n    //     candidates[candidatesCount] = Candidate(candidatesCount, name, division, 0);\r\n    // }\r\n\r\n    function vote(uint _candidateId) public {\r\n        require(!voters[msg.sender]);\r\n        require(_candidateId > 0 && _candidateId <= candidatesCount);\r\n\r\n        voters[msg.sender] = true;\r\n\r\n        emit votedEvent(_candidateId, msg.sender);\r\n    }\r\n\r\n    function getCandidates(string memory division) external view returns (string[] memory, uint[] memory) {\r\n        string[] memory names = new string[](candidatesCount);\r\n        uint[] memory voteCounts = new uint[](candidatesCount);\r\n        for (uint i = 0; i < candidatesCount; i++) {\r\n            if (keccak256(abi.encodePacked(candidates[i].division)) == keccak256(abi.encodePacked(division))) {\r\n                names[i] = candidates[i].name;\r\n                voteCounts[i] = candidates[i].voteCount;\r\n            }\r\n            \r\n        }\r\n        return (names, voteCounts);\r\n    }\r\n}",
  "sourcePath": "D:\\coding\\Blockchain\\BVS\\contracts\\election.sol",
  "compiler": {
    "name": "solc",
    "version": "0.8.13+commit.abaa5c0e.Emscripten.clang"
  },
  "schemaVersion": "3.4.7",
  "updatedAt": "2022-05-08T09:28:50.787Z",
  "networkType": "ethereum",
  "devdoc": {
    "kind": "dev",
    "methods": {},
    "version": 1
  },
  "userdoc": {
    "kind": "user",
    "methods": {},
    "version": 1
  }
}